:100000000C9434000C9451000C9451000C94510049
:100010000C9451000C9451000C9451000C9451001C
:100020000C9451000C9451000C9451000C94FA0063
:100030000C9451000C9451000C9451000C945100FC
:100040000C9451000C9451000C9451000C945100EC
:100050000C9451000C949E010C9451000C9451008E
:100060000C9451000C94510011241FBECFEFD8E026
:10007000DEBFCDBF11E0A0E0B1E0E4EEFAE002C0E7
:1000800005900D92A830B107D9F721E0A8E0B1E0C2
:1000900001C01D92A131B207E1F70E9446020C9403
:1000A00070050C940000ECE7F0E080818083808193
:1000B00080648083808180628083EAE7F0E08081D1
:1000C000876080838081806880838081886080836E
:1000D0000895E1E8F0E0208128602083EFE6F0E079
:1000E0002081226020839093890080938800089566
:1000F0009BB19F709BB99BB18295807F892B8BB9F7
:10010000299A299A29980895CF93C82F85B115B8AF
:100110008C2F82958F700E9478008C2F0E9478001F
:100120008FE39FE10197F1F700C00000CF910895A0
:100130000C9484008FE59AEE0197F1F700C000005F
:1001400085B115B883E00E9478008FE19EE40197A5
:10015000F1F700C0000083E00E9478008FED91E08D
:100160000197F1F700C0000083E00E94780082E070
:100170000E9478008FE39FE10197F1F700C0000033
:1001800088E20E9484008FE39FE10197F1F700C0AD
:1001900000008FE00E9484008FE39FE10197F1F758
:1001A00000C000000895CF93C82F289A82958F70C1
:1001B0000E9478008C2F0E9478008FE39FE10197C6
:1001C000F1F700C00000CF9108951F93CF93DF9304
:1001D000EC0110E0FE01E10FF11D17FDFA958081A1
:1001E000882321F00E94D3001F5FF4CFDF91CF91CD
:1001F0001F9108951F920F920FB60F9211240F9323
:100200001F932F933F934F935F936F937F938F939E
:100210009F93AF93BF93EF93FF93CF93DF93CDB7AC
:10022000DEB72597DEBFCDBF809108018F5F809339
:100230000801809108018A3038F0109208018091FD
:1002400009018F5F80930901809109018A3038F09C
:100250001092090180910A018F5F80930A018091B9
:100260000A01863030F010920A01109209011092B2
:10027000080180910E018823D9F180910E0181300F
:10028000B9F590910F0180910A0198130CC09091DB
:10029000100180910901981306C090910D01809181
:1002A0000801981729F12091080190910901809186
:1002B0000A011F922F931F929F931F928F9380E0AA
:1002C00091E09F938F931F9285E08F938E010F5F34
:1002D0001F4F1F930F930E94910280E80E94840099
:1002E000C8010E94E5000FB6F894DEBF0FBECDBF77
:1002F00080910A0180930F01809109018093100180
:100300008091080180930D010F900F900F900F9036
:100310000F90DF91CF91FF91EF91BF91AF919F919E
:100320008F917F916F915F914F913F912F911F918D
:100330000F910F900FBE0F901F9018951F920F9264
:100340000FB60F9211240F931F932F933F934F9348
:100350005F936F937F938F939F93AF93BF93EF932D
:10036000FF93CF93DF93CDB7DEB72597DEBFCDBF29
:100370008091790080930B0180910B018F3F09F4EC
:1003800066C080910B018E32E0F080910B018C33BE
:10039000C0F480910E01811107C081E080930E01AD
:1003A0008091810084600AC080910E01813009F043
:1003B0004BC010920E01809181008B7F8093810051
:1003C00046C080910B01803608F441C080910B013A
:1003D0008E36E8F580910E0181112CC010920A0131
:1003E00010920901109208012091080190910901D1
:1003F00080910A011F922F931F929F931F928F93B8
:1004000080E091E09F938F931F9285E08F938E0100
:100410000F5F1F4F1F930F930E94910280E80E946D
:100420008400C8010E94E5000FB6F894DEBF0FBE3D
:10043000CDBF0DC080910E01813011F482E005C066
:1004400080910E01823019F481E080930E01809139
:100450007A00806480937A000F900F900F900F9035
:100460000F90DF91CF91FF91EF91BF91AF919F914D
:100470008F917F916F915F914F913F912F911F913C
:100480000F910F900FBE0F901F901895CF93DF9391
:1004900000D000D01F92CDB7DEB78AB1806F8AB985
:1004A00084B1836084B978940E949A0081E00E94AC
:1004B00084008AE698E10E9469000E94530020911E
:1004C00008019091090180910A011F922F931F92B8
:1004D0009F931F928F9380E091E09F938F931F9241
:1004E00085E08F938E010F5F1F4F1F930F930E9424
:1004F000910280E80E948400C8010E94E50080917A
:100500007A00806480937A0010920E010FB6F894FE
:10051000DEBF0FBECDBF80917A00806480937A00E9
:10052000FACFAEE0B0E0E7E9F2E00C9447050D89C0
:100530001E898F89988D26E02C831A83098397FF63
:1005400002C080E090E801979E838D83AE01455EF6
:100550005F4F698D7A8DCE0101960E94C1024D8157
:100560005E8157FD0AC02F813885421753070CF46E
:100570009A01F801E20FF31F10822E96E4E00C942A
:100580006305ACE0B0E0E7ECF2E00C9439057C01E7
:100590006B018A01FC0117821682838181FFBDC134
:1005A000CE0101964C01F7019381F60193FD8591EF
:1005B00093FF81916F01882309F4ABC1853239F42F
:1005C00093FD859193FF81916F01853229F4B701E5
:1005D00090E00E94A904E7CF512C312C20E020327A
:1005E000A0F48B3269F030F4803259F0833269F430
:1005F00020612CC08D3239F0803339F4216026C05F
:100600002260246023C0286021C027FD27C030ED70
:10061000380F3A3078F426FF06C0FAE05F9E300DBE
:100620001124532E13C08AE0389E300D1124332E2E
:1006300020620CC08E3221F426FD6BC1206406C0FE
:100640008C3611F4206802C0883641F4F60193FD1F
:10065000859193FF81916F018111C1CF982F9F7D6B
:100660009554933028F40C5F1F4FFFE3F9830DC0BE
:10067000833631F0833771F0833509F05BC022C0D7
:10068000F801808189830E5F1F4F44244394512CCD
:10069000540115C03801F2E06F0E711CF801A08002
:1006A000B18026FF03C0652D70E002C06FEF7FEFC1
:1006B000C5012C870E949E042C0183012C852F7775
:1006C000222E17C03801F2E06F0E711CF801A080D5
:1006D000B18026FF03C0652D70E002C06FEF7FEF91
:1006E000C5012C870E9493042C012C852068222EA2
:1006F000830123FC1BC0832D90E048165906B0F4FB
:10070000B70180E290E00E94A9043A94F4CFF50189
:1007100027FC859127FE81915F01B70190E00E943F
:10072000A90431103A94F1E04F1A510841145104D0
:1007300071F7E5C0843611F0893639F5F80127FFE5
:1007400007C060817181828193810C5F1F4F08C057
:1007500060817181882777FD8095982F0E5F1F4FEC
:100760002F76B22E97FF09C0909580957095619570
:100770007F4F8F4F9F4F2068B22E2AE030E0A401B8
:100780000E94DB04A82EA81844C0853729F42F7EC8
:10079000B22E2AE030E025C0F22FF97FBF2E8F362F
:1007A000C1F018F4883579F0B4C0803719F0883773
:1007B00021F0AFC02F2F2061B22EB4FE0DC08B2DC3
:1007C0008460B82E09C024FF0AC09F2F9660B92EFE
:1007D00006C028E030E005C020E130E002C020E1A2
:1007E00032E0F801B7FE07C0608171818281938198
:1007F0000C5F1F4F06C06081718180E090E00E5F4A
:100800001F4FA4010E94DB04A82EA818FB2DFF7720
:10081000BF2EB6FE0BC02B2D2E7FA51450F4B4FEB8
:100820000AC0B2FC08C02B2D2E7E05C07A2C2B2DC1
:1008300003C07A2C01C0752C24FF0DC0FE01EA0D07
:10084000F11D8081803311F4297E09C022FF06C08A
:100850007394739404C0822F867809F0739423FDF7
:1008600013C020FF06C05A2C731418F4530C5718E9
:10087000732C731468F4B70180E290E02C870E9417
:10088000A90473942C85F5CF731410F4371801C0A4
:10089000312C24FF12C0B70180E390E02C870E9426
:1008A000A9042C8522FF17C021FF03C088E590E032
:1008B00002C088E790E0B7010CC0822F867859F01B
:1008C00021FD02C080E201C08BE227FD8DE2B7016D
:1008D00090E00E94A904A51438F4B70180E390E0E9
:1008E0000E94A9045A94F7CFAA94F401EA0DF11DCD
:1008F0008081B70190E00E94A904A110F5CF3320B8
:1009000009F451CEB70180E290E00E94A9043A9424
:10091000F6CFF7018681978102C08FEF9FEF2C966B
:10092000E2E10C945505FC01059061507040011006
:10093000D8F7809590958E0F9F1F0895FC01615008
:10094000704001900110D8F7809590958E0F9F1FF1
:1009500008950F931F93CF93DF93182F092FEB0167
:100960008B8181FD03C08FEF9FEF20C082FF10C0FD
:100970004E815F812C813D81421753077CF4E881D1
:10098000F9819F012F5F3F4F39832883108306C071
:10099000E885F985812F0995892B29F72E813F81DB
:1009A0002F5F3F4F3F832E83812F902FDF91CF9179
:1009B0001F910F910895FA01AA27283051F1203193
:1009C00081F1E8946F936E7F6E5F7F4F8F4F9F4FE3
:1009D000AF4FB1E03ED0B4E03CD0670F781F891F25
:1009E0009A1FA11D680F791F8A1F911DA11D6A0FF3
:1009F000711D811D911DA11D20D009F468943F91A6
:100A00002AE0269F11243019305D3193DEF6CF01A4
:100A10000895462F4770405D4193B3E00FD0C9F76A
:100A2000F6CF462F4F70405D4A3318F0495D31FDD7
:100A30004052419302D0A9F7EACFB4E0A69597952A
:100A4000879577956795BA95C9F700976105710500
:100A500008959B01AC010A2E06945795479537954A
:100A60002795BA95C9F7620F731F841F951FA01DA4
:100A700008952F923F924F925F926F927F928F9242
:100A80009F92AF92BF92CF92DF92EF92FF920F931D
:100A90001F93CF93DF93CDB7DEB7CA1BDB0B0FB627
:100AA000F894DEBF0FBECDBF09942A8839884888E4
:100AB0005F846E847D848C849B84AA84B984C8847A
:100AC000DF80EE80FD800C811B81AA81B981CE0F71
:100AD000D11D0FB6F894DEBF0FBECDBFED01089556
:040AE000F894FFCFB8
:080AE400256425642E25640041
:00000001FF
