:100000000C9434000C9451000C9451000C94510049
:100010000C9492000C9451000C9451000C945100DB
:100020000C9451000C9451000C9451000C9451000C
:100030000C9451000C9451000C9451000C945100FC
:100040000C9451000C9451000C9453000C945100EA
:100050000C9451000C9451000C9451000C945100DC
:100060000C9451000C94510011241FBECFEFD8E026
:10007000DEBFCDBF11E0A0E0B1E0EEE9FFE002C0DD
:1000800005900D92AA31B107D9F721E0AAE1B1E0BC
:1000900001C01D92AE32B207E1F70E94C6020C9475
:1000A000CD070C9400001F920F920FB60F921124EF
:1000B0008F939F93EF93FF938091C6008D3211F041
:1000C0008B3239F410921D0110921C01809329018A
:1000D00007C0E0911C01F0911D01E75DFE4F808398
:1000E00080911C0190911D01019690931D018093B8
:1000F0001C0180911C0190911D01049719F481E06D
:1001000080931E01FF91EF919F918F910F900FBEF1
:100110000F901F9018959091C00095FFFCCF809391
:10012000C60008951F920F920FB60F9211248F935D
:100130009F9391E09093210186B184708093230175
:1001400086B188708093220180912301882379F001
:1001500080912801811103C0909328011BC08091D8
:1001600028018A3001F58BE08093280106C0809138
:100170002801813041F41092280180911F01909153
:10018000200101970CC0809128018B3061F48AE036
:100190008093280180911F019091200101969093F6
:1001A000200180931F0180912201882371F08091AA
:1001B0002801811102C08AE019C080912801813094
:1001C00001F58BE08093280106C0809128018A30D8
:1001D00041F41092280180911F0190912001019615
:1001E0000CC0809128018B3061F481E0809328015C
:1001F00080911F019091200101979093200180939D
:100200001F019F918F910F900FBE0F901F90189517
:100210009BB19F709BB99BB18295807F892B8BB9D5
:10022000299A299A29980895CF93C82F85B115B88E
:100230008C2F82958F700E9408018C2F0E940801DC
:100240008FE39FE10197F1F700C00000CF9108957F
:100250000C9414018FE59AEE0197F1F700C00000AD
:1002600085B115B883E00E9408018FE19EE40197F3
:10027000F1F700C0000083E00E9408018FED91E0DB
:100280000197F1F700C0000083E00E94080182E0BE
:100290000E9408018FE39FE10197F1F700C0000081
:1002A00088E20E9414018FE39FE10197F1F700C0FB
:1002B00000008FE00E9414018FE39FE10197F1F7A6
:1002C00000C000000895CF93C82F289A82958F70A0
:1002D0000E9408018C2F0E9408018FE39FE1019783
:1002E000F1F700C00000CF9108951F93CF93DF93E3
:1002F000EC0110E0FE01E10FF11D17FDFA95808180
:10030000882321F00E9463011F5FF4CFDF91CF911A
:100310001F910895CF92DF92EF92FF920F931F9358
:100320004115510521F40115110509F4A0C094EA05
:100330009093BC009091BC0097FFFCCF9091B900C6
:10034000987F983009F068C0982F9E7F9093BB00EB
:1003500094E89093BC009091BC0097FFFCCF9091E3
:10036000B900987F983121F0903209F055C051C002
:10037000FB01460F571F64E8E417F50791F09191D0
:100380009093BB006093BC009091BC0097FFFCCFA2
:100390009091B900987F983279F39033E9F590E322
:1003A00038C0F901020F131F24E8E017F10779F0B4
:1003B00091919093BB002093BC009091BC0097FF5B
:1003C000FCCF9091B900987F983279F3E6CFC114B1
:1003D000D10409F44AC020E194EA9093BC009091C2
:1003E000BC0097FFFCCF9091B900987F921314C086
:1003F00081608093BB0084E88093BC008091BC0046
:1004000087FFFCCF9091B900987F903439F09834F1
:1004100019F484E98093BC00892F2FC0F70184EC84
:1004200091E0C916D10491F08093BC009091BC007A
:1004300097FFFCCF9091B900987F21E0C21AD108B4
:10044000903551F79091BB009193EACF84E8809367
:10045000BC008091BC0087FFFCCF9091B900987FD1
:100460009835D1F68091BB00808390E0D2CFC11443
:10047000D10411F028E0B0CF80E01F910F91FF90E0
:10048000EF90DF90CF900895CF92DF92EF92FF929E
:100490000F931F93CF93DF931F92CDB7DEB78EEEEE
:1004A0008983C12CD12CE12CF12C00E010E020E05C
:1004B00030E041E050E0BE016F5F7F4F80E90E9475
:1004C0008A010F90DF91CF911F910F91FF90EF90D4
:1004D000DF90CF900895CF92DF92EF92FF920F932B
:1004E0001F93CF93DF931F92CDB7DEB72AEA2983FC
:1004F00022E0C22ED12C7C0100E010E020E030E0B0
:1005000041E050E0BE016F5F7F4F80E90E948A01A9
:100510000F90DF91CF911F910F91FF90EF90DF909F
:10052000CF900895CF92DF92EF92FF920F931F9397
:10053000CF93DF9300D0CDB7DEB71092B90089E436
:100540008093B8008CEA898382E08A83C12CD12C05
:10055000E12CF12C00E010E020E030E042E050E03F
:10056000BE016F5F7F4F80E90E948A010F900F905C
:10057000DF91CF911F910F91FF90EF90DF90CF907F
:1005800008951092B9008093B8000895CF93DF9337
:10059000CDB7DEB7AE970FB6F894DEBF0FBECDBFB6
:1005A0008AB1806F8AB984B1836384B988B18C635E
:1005B00088B98BB18C608BB9239A2B988091C1003C
:1005C00088698093C10086E08093C20087E690E04E
:1005D0009093C5008093C4008091680082608093EE
:1005E000680080916C008C6080936C0078940E940D
:1005F0002A010E9492020E94440281E00E9414019A
:1006000060E071E0CE0101960E94E70480EC0E9458
:100610002801CE0101960E94750165E071E0CE01CE
:1006200001960E94E70488EC0E942801CE01019601
:100630000E9475016BE071E0CE0101960E94E70413
:1006400080E80E942801CE0101960E94750161E1B7
:1006500071E0CE0101960E94E70488E80E9428011B
:10066000CE0101960E9475011CA61BA637E3A32E9E
:10067000B12C42E3C42ED12C222423948E01015E9E
:100680001F4F56E1E52E51E0F52E66E0362E4A99D1
:1006900005C0209226011092270106C04B9904C084
:1006A000109226012092270180912101882309F4CC
:1006B0005DC080912601882361F1D0922001C09213
:1006C0001F0180911F01909120018A159B051CF04C
:1006D000BF92AF9206C080911F01909120019F931D
:1006E0008F93FF92EF921F923F921F930F930E945E
:1006F000EE0484EC0E942801C8010E9475010FB627
:10070000F894DEBF0FBECDBFC0901F01D090200176
:100710002BC0B0922001A0921F0180911F019091E7
:100720002001C816D9061CF0DF92CF9206C0809136
:100730001F01909120019F938F93FF92EF921F9240
:100740003F921F930F930E94EE048DEC0E942801AC
:10075000C8010E9475010FB6F894DEBF0FBECDBF71
:10076000A0901F01B090200110922101CE01899626
:100770000E946B0289A494E6899E400111248AA5F7
:10078000811103C080E090E002C082E390E0880E17
:10079000991E29E0289DC001299D900D112465E036
:1007A00070E00E94BF04CB018058934F64E670E074
:1007B0000E94BF042B013B015F926F93FF92EF9267
:1007C0001F923F921F930F930E94EE0485E80E94B0
:1007D0002801C8010E9475010FB6F894DEBF0FBE54
:1007E000CDBFA414B5041CF4209225010AC04C14FA
:1007F0005D041CF42092240104C010922501109283
:10080000240180912501882311F02D9A08C0809140
:100810002401882311F02C9A02C02D982C9857FEA1
:1008200008C03201660C771C640C751C8DE220E355
:100830001CC054E6451651044CF0C20164E670E059
:100840000E94BF0420E3260F3C0101C020E36AE0C0
:10085000661671044CF0C3016AE070E00E94BF04A8
:10086000605D682E8BE204C08BE260E377FC03C01E
:1008700090E3690E02C090E3692E4BA55CA5481574
:10088000590579F02DA76EA70E948B002DA5822F08
:100890000E948B006EA5862F0E948B00862D0E94E1
:1008A0008B0080912A01992787FD9095C09754E687
:1008B000589F9001599F300D112430931B012093B4
:1008C0001A0180911A0190911B0120912B0133276D
:1008D00027FD3095205331096AE0629FA001639F94
:1008E000500D1124840F951F90931B0180931A01C2
:1008F00080911A0190911B0120912C01332727FD33
:10090000309520533109820F931F90931B018093E0
:100910001A0180912A018D3259F480911A01909127
:100920001B0191958195910990931B0180931A0168
:1009300080911E01811103C09CA68BA6A8CE809138
:100940001A0190911B019F938F93FF92EF921F9238
:100950003F921F930F930E94EE048CE80E9428019F
:10096000C8010E94750110921B0110921A01109289
:100970001E010FB6F894DEBF0FBECDBFDDCF97FBD3
:10098000072E16F4009407D077FD09D00E94D304F7
:1009900007FC05D03EF4909581959F4F0895709582
:1009A00061957F4F0895AA1BBB1B51E107C0AA1F89
:1009B000BB1FA617B70710F0A61BB70B881F991F00
:1009C0005A95A9F780959095BC01CD010895FB013A
:1009D000DC0101900D920020E1F70895AEE0B0E057
:1009E000E4EFF4E00C94A4070D891E898F89988D9B
:1009F00026E02C831A83098397FF02C080E090E8E9
:100A000001979E838D83AE01455E5F4F698D7A8D20
:100A1000CE0101960E941E054D815E8157FD0AC0E0
:100A20002F813885421753070CF49A01F801E20F21
:100A3000F31F10822E96E4E00C94C007ACE0B0E007
:100A4000E4E2F5E00C9496077C016B018A01FC015D
:100A500017821682838181FFBDC1CE0101964C01B0
:100A6000F7019381F60193FD859193FF81916F01C9
:100A7000882309F4ABC1853239F493FD859193FF46
:100A800081916F01853229F4B70190E00E94060739
:100A9000E7CF512C312C20E02032A0F48B3269F0CA
:100AA00030F4803259F0833269F420612CC08D32E9
:100AB00039F0803339F4216026C02260246023C0DD
:100AC000286021C027FD27C030ED380F3A3078F478
:100AD00026FF06C0FAE05F9E300D1124532E13C08E
:100AE0008AE0389E300D1124332E20620CC08E32E5
:100AF00021F426FD6BC1206406C08C3611F42068F9
:100B000002C0883641F4F60193FD859193FF8191EF
:100B10006F018111C1CF982F9F7D9554933028F498
:100B20000C5F1F4FFFE3F9830DC0833631F083372D
:100B300071F0833509F05BC022C0F80180818983A0
:100B40000E5F1F4F44244394512C540115C03801AB
:100B5000F2E06F0E711CF801A080B18026FF03C087
:100B6000652D70E002C06FEF7FEFC5012C870E94FA
:100B7000FB062C0183012C852F77222E17C038010C
:100B8000F2E06F0E711CF801A080B18026FF03C057
:100B9000652D70E002C06FEF7FEFC5012C870E94CA
:100BA000F0062C012C852068222E830123FC1BC01B
:100BB000832D90E048165906B0F4B70180E290E02A
:100BC0000E9406073A94F4CFF50127FC859127FE91
:100BD00081915F01B70190E00E94060731103A94BD
:100BE000F1E04F1A51084114510471F7E5C0843601
:100BF00011F0893639F5F80127FF07C0608171814E
:100C0000828193810C5F1F4F08C0608171818827AA
:100C100077FD8095982F0E5F1F4F2F76B22E97FF8E
:100C200009C090958095709561957F4F8F4F9F4F2C
:100C30002068B22E2AE030E0A4010E943807A82ED6
:100C4000A81844C0853729F42F7EB22E2AE030E060
:100C500025C0F22FF97FBF2E8F36C1F018F48835EA
:100C600079F0B4C0803719F0883721F0AFC02F2F4A
:100C70002061B22EB4FE0DC08B2D8460B82E09C049
:100C800024FF0AC09F2F9660B92E06C028E030E0EE
:100C900005C020E130E002C020E132E0F801B7FEFB
:100CA00007C060817181828193810C5F1F4F06C0F4
:100CB0006081718180E090E00E5F1F4FA4010E946F
:100CC0003807A82EA818FB2DFF77BF2EB6FE0BC045
:100CD0002B2D2E7FA51450F4B4FE0AC0B2FC08C020
:100CE0002B2D2E7E05C07A2C2B2D03C07A2C01C013
:100CF000752C24FF0DC0FE01EA0DF11D80818033AB
:100D000011F4297E09C022FF06C07394739404C0B5
:100D1000822F867809F0739423FD13C020FF06C04C
:100D20005A2C731418F4530C5718732C731468F45A
:100D3000B70180E290E02C870E94060773942C850F
:100D4000F5CF731410F4371801C0312C24FF12C0F2
:100D5000B70180E390E02C870E9406072C8522FFD4
:100D600017C021FF03C088E590E002C088E790E04B
:100D7000B7010CC0822F867859F021FD02C080E2B5
:100D800001C08BE227FD8DE2B70190E00E940607CB
:100D9000A51438F4B70180E390E00E9406075A9446
:100DA000F7CFAA94F401EA0DF11D8081B70190E01C
:100DB0000E940607A110F5CF332009F451CEB701E8
:100DC00080E290E00E9406073A94F6CFF701868110
:100DD000978102C08FEF9FEF2C96E2E10C94B2074F
:100DE000FC010590615070400110D8F780959095F6
:100DF0008E0F9F1F0895FC016150704001900110FB
:100E0000D8F7809590958E0F9F1F08950F931F938D
:100E1000CF93DF93182F092FEB018B8181FD03C046
:100E20008FEF9FEF20C082FF10C04E815F812C8129
:100E30003D81421753077CF4E881F9819F012F5FC0
:100E40003F4F39832883108306C0E885F985812FB9
:100E50000995892B29F72E813F812F5F3F4F3F83D3
:100E60002E83812F902FDF91CF911F910F910895A5
:100E7000FA01AA27283051F1203181F1E8946F93CB
:100E80006E7F6E5F7F4F8F4F9F4FAF4FB1E03ED071
:100E9000B4E03CD0670F781F891F9A1FA11D680F0F
:100EA000791F8A1F911DA11D6A0F711D811D911D42
:100EB000A11D20D009F468943F912AE0269F1124B7
:100EC0003019305D3193DEF6CF010895462F47701B
:100ED000405D4193B3E00FD0C9F7F6CF462F4F7076
:100EE000405D4A3318F0495D31FD4052419302D0D4
:100EF000A9F7EACFB4E0A69597958795779567957A
:100F0000BA95C9F700976105710508959B01AC0179
:100F10000A2E06945795479537952795BA95C9F7A0
:100F2000620F731F841F951FA01D08952F923F927B
:100F30004F925F926F927F928F929F92AF92BF92E9
:100F4000CF92DF92EF92FF920F931F93CF93DF9395
:100F5000CDB7DEB7CA1BDB0B0FB6F894DEBF0FBEF2
:100F6000CDBF09942A88398848885F846E847D843F
:100F70008C849B84AA84B984C884DF80EE80FD8041
:100F80000C811B81AA81B981CE0FD11D0FB6F894B7
:0E0F9000DEBF0FBECDBFED010895F894FFCF78
:100F9E004C6F773A00486967683A0054656D703A4D
:0A0FAE0000526D743A002564000043
:00000001FF
